:020000040800F2
:1000000000200020B52500087D2400087F2400087A
:1000100000000000000000000000000000000000E0
:100020000000000000000000000000008124000823
:100030000000000000000000832400088524000860
:1000400005260008052600080526000805260008E4
:1000500005260008052600080526000805260008D4
:100060000000000005260008052600088D24000871
:1000700005260008052600080000000005260008E7
:100080000000000000000000000000000000000070
:1000900005260008000000000526000805260008C7
:1000A000000000000526000800000000000000001D
:1000B0009D24000805260008000000000000000044
:1000C000002243088B4274D303098B425FD3030A97
:1000D0008B4244D3030B8B4228D3030C8B420DD3AA
:1000E000FF22090212BA030C8B4202D31212090238
:1000F00065D0030B8B4219D300E0090AC30B8B4276
:1001000001D3CB03C01A5241830B8B4201D38B0323
:10011000C01A5241430B8B4201D34B03C01A5241C8
:10012000030B8B4201D30B03C01A5241C30A8B420B
:1001300001D3CB02C01A5241830A8B4201D38B02F6
:10014000C01A5241430A8B4201D34B02C01A52419A
:10015000030A8B4201D30B02C01A5241CDD2C3090C
:100160008B4201D3CB01C01A524183098B4201D388
:100170008B01C01A524143098B4201D34B01C01A73
:10018000524103098B4201D30B01C01A5241C308EB
:100190008B4201D3CB00C01A524183088B4201D35A
:1001A0008B00C01A524143088B4201D34B00C01A46
:1001B0005241411A00D20146524110467047FFE7B2
:1001C00001B5002000F006F802BDC0460029F7D0B6
:1001D00076E770477047C046002B11D1002A0FD137
:1001E000002900D1002802D00021C943080007B42B
:1001F000024802A14018029003BDC046D9FFFFFF8C
:1002000003B4684601B5029802F02AFA019B9E46A3
:1002100002B00CBC7047C0461C2101231B0498424D
:1002200001D3000C10391B0A984201D3000A083987
:100230001B09984201D30009043902A2105C40183E
:100240007047C046040302020101010100000000E2
:100250000000000010B5002903D1FFF7DDFF2030BA
:1002600002E00800FFF7D8FF10BDC04610B5064CED
:100270002378002B07D1054B002B02D0044800E067
:1002800000BF0123237010BD0C00002000000000FF
:10029000582E0008044B10B5002B03D00349044826
:1002A00000E000BF10BDC0460000000010000020AC
:1002B000582E000810B504000F4B1978FA20800062
:1002C000FFF7FEFE01000D4B1868FFF7F9FE00F086
:1002D000ADF800280DD1032C01D901200AE001302E
:1002E00000222100404200F091F8054B1C600020E4
:1002F00000E0012010BDC0460000002008000020E2
:100300000400002010B5084A136840210B43136015
:100310000320FFF7CFFF041E02D00124200010BDF0
:1003200002F024F8FAE7C04600200240034A1168B0
:10033000034B1B785B1813607047C04628000020F1
:1003400000000020014B18687047C04628000020BC
:1003500070B50400FFF7F6FF0500631C02D0044BE4
:100360001B78E418FFF7EEFF401BA042FAD370BDE4
:100370000000002070B5002811DB8308134DC03346
:100380009B005C5903221040C000FC3216008640DE
:10039000B44389010A40824022435A5170BD0F2361
:1003A0000340083B9B0806339B00094A944663447C
:1003B0005C6803221040C000FC3215008540AC434D
:1003C00089010A40824022435A60E7E700E100E0E9
:1003D00000ED00E0013880235B0498420FD2094A07
:1003E00050600948036A1B021B0AC02109060B431F
:1003F00003620023936007331360002070470120DD
:10040000FCE7C04610E000E000ED00E010B5FFF7AB
:10041000B1FF10BD002805DB1F22024001239340DD
:10042000014A13607047C04600E100E010B5FFF7D5
:10043000D1FF10BD70B5446C1C252540066C01240D
:10044000AC407460046863608368102B04D0036858
:1004500099600368DA6070BD03689A600368D960C8
:10046000F9E7000070B5041E3DD005681F4BE81881
:100470001421FFF725FE800060641D4B23642523B3
:100480000222E2542A681B4B1A40A368E1680B431E
:1004900021690B4361690B43A1690B43E1690B437C
:1004A000216A0B4313432B60A2688023DB019A422D
:1004B00010D0114B1968656C1C2215400F20A84004
:1004C0008143196019686068656C2A409040020099
:1004D0000A431A600023E36325220121A154013A53
:1004E000A354002070BD0120FCE7C046F8FFFDBF0B
:1004F000000002400F80FFFFA800024070B504001A
:100500002420205C012832D02420012525540130EC
:10051000205C012804D024230022E254022070BD74
:100520002430013525540020E06325682868012621
:10053000B04328602000FFF77DFF236B002B0BD01A
:10054000226813680E210B4313602268136801218F
:100550000B4313600020E2E72268136804218B43F9
:1005600013602268136806310B431360EDE7022025
:10057000D5E710B52523C35C022B06D00423C36343
:1005800020330022C254012010BD026813680E21DE
:100590008B43136001680A6801239A430A60416C27
:1005A0001C220A40016C1C0094404C60252283549C
:1005B00023330022C2540020E6E710B52523C35C94
:1005C000022B03D00423C363012010BD026813680B
:1005D0000E218B43136001680A6801239A430A6065
:1005E000416C1C220A40016C1C0094404C60252286
:1005F000835423330022C254836B002B02D09847CC
:100600000020E2E70020E0E770B5036C1968046899
:100610002568426C1C23134004229A40114214D0D6
:100620006A0712D523689B0603D4236804229343E8
:100630002360436C1C221A40016C042393404B60DE
:10064000036B002B00D0984770BD02229A401142E4
:100650001AD0AA0718D523689B0606D423680A2255
:10066000934323602523093AC254436C1C221A4049
:10067000016C022393404B6024230022C254C36ABE
:10068000002BE1D09847DFE708229A401142DBD0E7
:100690002D07D9D523680E2293432360436C0E3275
:1006A0001A40016C01231C0094404C60C363252256
:1006B000835423330022C254436B002BC4D0984789
:1006C000C2E70000F0B5002356E086685F0003240F
:1006D000BC40A643CC68BC40344384604468944327
:1006E0004E683609012232409A402243426053E06C
:1006F000DE080836B600375805321A4092000F243B
:100700009440A7430C69944022003A43325056E08B
:10071000052600E00026A64034003C430232920049
:10072000414E9451414A9768EA433E00AE434C68BB
:10073000E40201D53E002E433C4CA660E7683E0033
:1007400016404C68A40201D53E002E43374CE660AB
:1007500067683E0016404C68A40301D53E002E4356
:10076000324C6660266832404C68E40301D52A00AA
:1007700032432E4C226001330C682200DA4052D002
:1007800001229A40250015401442F4D04E680324FB
:100790003440013C012C98D94C6803222240032AA2
:1007A00008D0C4685E000322B24094438A68B24015
:1007B0002243C2604C6803222240022A98D0046877
:1007C0005E0003221700B740BC434F683A40B24076
:1007D000224302604C68C02292021442CBD0144CD7
:1007E000626B0126324362639A08941CA4000E4E89
:1007F000A75903241C40A4000F26A640B743A026F7
:10080000F605B04286D00B4EB04208D00A4EB04238
:1008100007D00A4EB04200D17AE706267BE70126D0
:1008200079E7022677E7F0BD0000014000040140AF
:10083000001002400004005000080050001C00504E
:10084000002A01D0816170478162FCE74269130090
:100850000B401B0491430B438361704710B5264B3B
:10086000D9680C230B40082B42D00C2B11D0042B41
:1008700009D0214B5A68520B0723134001338020C3
:100880000002984010BD1C4B1B68DB0632D51B488C
:10089000F8E78A0C0F231340194AD25C890D032311
:1008A00019400131144BDB68DB0309D553019B1A56
:1008B0009801C01AC00080184002FFF701FCE1E770
:1008C0000D4B1B68DB0609D553019B1A9801C01A12
:1008D000C00080180002FFF7F3FBD3E753019B1A17
:1008E0009801C01AC00080188002FFF7E9FBC9E731
:1008F0000448C7E70448C5E70010024000093D006E
:10090000EC2E000800127A000024F400F0B583B049
:10091000041E00D165E2C54BDA680C251540DE687F
:1009200080235B021E400368DB0736D5082D2CD0E0
:100930000C2D28D0636880225202934255D0A02209
:10094000D202934258D0B94B1A68B9490A401A608A
:100950001A68802149020A400192019A1A68B54931
:100960000A401A606368002B52D0FFF7EBFC0700C7
:10097000AE4B1B689B0310D4FFF7E4FCC01B64283C
:10098000F6D903202EE2002ED4D0A84B1B689B037F
:1009900003D56368002B00D126E223689B076DD541
:1009A000E3689A0605D5A148026820210A4302603F
:1009B0008B43042D3CD00C2D38D0002B00D1B0E05F
:1009C0009A490A680920824313430B60FFF7BAFC77
:1009D0000600964B1B685B0700D599E0FFF7B2FC59
:1009E000801B0228F5D90320FCE1904A116880237E
:1009F0005B020B431360B5E78C4B19688022D2026F
:100A00000A431A601968802252020A431A60A9E751
:100A1000FFF798FC0700854B1B689B03BDD5FFF7CC
:100A200091FCC01B6428F6D90320DBE1002EC4D161
:100A30007E4A1268520702D5002B00D1D6E17B4EC8
:100A400072687D490A40216909020A43726032686E
:100A500009218A4313433360FFF700FFF26812094C
:100A60000F231340754AD35CD840754B1860754B03
:100A70001868FFF71FFC002800D0B3E12368DB06ED
:100A80002DD5002D60D1694B1B689B0503D5A3694B
:100A9000002B00D1ACE1654A53686B490B40216AD9
:100AA0000B43536053681B021B0AE16909060B43A1
:100AB0005360216A490B013180231B028B40D168AE
:100AC00009090F220A405D498A5CD3405C4A1360E1
:100AD0005C4B1868FFF7EEFB002800D082E123682A
:100AE0001B077DD56369002B67D0504A136D012128
:100AF0000B431365FFF726FC06004C4B1B6D9B0751
:100B00006ED4FFF71FFC801B0228F6D9032069E191
:100B100046494B68484A13402269120213434B600E
:100B2000ACE7424A136801218B431360FFF70AFCCC
:100B300006003E4B1B685B07A0D5FFF703FC801B3C
:100B40000228F6D903204DE1A369002B22D0374AB1
:100B5000116880235B000B431360FFF7F3FB060073
:100B6000324B1B689B0506D4FFF7ECFB801B022869
:100B7000F6D9032036E12D4A536833490B40216AE8
:100B80000B43536053681B021B0AE16909060B43C0
:100B90005360A4E7254A13682C490B401360FFF704
:100BA000D1FB0600214B1B689B0598D5FFF7CAFBBC
:100BB000801B0228F6D9032014E11C4A136D012181
:100BC0008B431365FFF7BEFB0600184B1B6D9B079D
:100BD00006D5FFF7B7FB801B0228F6D9032001E1F9
:100BE00023685B0700D48EE0104B9B6BDB001BD4AB
:100BF0000E4A916B80235B050B4393630126144BD4
:100C00001B68DB0528D5A36880225200934237D0A9
:100C1000002B4DD1054B1A6D0C490A401A651A6D0F
:100C20000C490A401A6531E00026E8E7001002404E
:100C3000FFFFFEFFFFFFFBFFFFE0FFFF002F0008AD
:100C40000800002004000020FF1FFFFFFFFEFFFF41
:100C500000700040FFFBFFFF6B4A116880235B00C0
:100C60000B431360FFF76EFB0700674B1B68DB0548
:100C7000C9D4FFF767FBC01B6428F6D90320B1E095
:100C8000624A116D80235B000B431365A368002B40
:100C900028D0FFF757FB07005C4B1B6D9B0530D43A
:100CA000FFF750FBC01B5A4B9842F5D9032099E03F
:100CB000A022D200934209D0544B1A6D55490A40E4
:100CC0001A651A6D54490A401A65DFE74F4B196DD2
:100CD000013AFF3A0A431A65196D802252000A430D
:100CE0001A65D3E7FFF72EFB0700484B1B6D9B05EA
:100CF00007D5FFF727FBC01B454B9842F5D90320CA
:100D000070E0012E1AD0636A002B00D172E00C2D26
:100D10004FD0022B18D03D4A136840490B40136056
:100D2000FFF710FB0400394B1B689B013FD5FFF711
:100D300009FB001B0228F6D9032053E0334A936BCA
:100D400037490B409363DEE7304A136833490B4061
:100D50001360FFF7F7FA05002C4B1B689B0106D5C3
:100D6000FFF7F0FA401B0228F6D903203AE02749A2
:100D7000CB682C4A1340A26AE06A0243206B02430C
:100D80001343CB600A6880235B0413430B60FFF7B7
:100D9000D9FA04001D4B1B689B0106D4FFF7D2FA59
:100DA000001B0228F6D903201CE000201AE00020D6
:100DB00018E0012B20D0154BDA6880235B0213402A
:100DC000A16A8B421AD1F0239B031340E16A8B4244
:100DD00016D1C0231B041A40236B9A4212D1002063
:100DE00000E0012003B0F0BD0120FBE70120F9E79E
:100DF0000120F7E70020F5E70120F3E70120F1E704
:100E00000120EFE70120EDE70070004000100240F4
:100E100088130000FFFEFFFFFFFBFFFFFFFFFFFE49
:100E2000FFFFFFEFFFFF02FF70B505000C00002879
:100E300000D1D1E06A4B1A68012313408B4219D3C9
:100E40002B689B0706D5674AD368F0218B43A968B6
:100E50000B43D3602B68DB077BD56B68022B20D05C
:100E6000032B40D0012B44D05E4A126892051DD45A
:100E7000012099E05A4A136801218B4323431360F0
:100E8000FFF760FA0600564B1A6801231340A3428D
:100E9000D6D0FFF757FA801B534A9042F3D903206C
:100EA00082E0504A1268920300D497E04D49CA6824
:100EB000032082431343CB60FFF744FA06006B68BC
:100EC000022B1CD0032B28D0012B34D0454BDB68E0
:100ED0000C221A423DD0FFF735FA801B424B984254
:100EE000F4D9032060E03F4A12689201DED4012069
:100EF0005AE03C4A12685207D8D4012054E0394BDA
:100F0000DA680C231340082B23D0FFF71BFA801B51
:100F1000354A9042F3D9032046E0324BDA680C237D
:100F200013400C2B15D0FFF70DFA801B2E4B984267
:100F3000F3D9032038E02B4BDA680C231340042B41
:100F400007D0FFF7FFF9801B274B9842F3D9032006
:100F50002AE0234B1A6801231340A34225D82B68AB
:100F60005B0706D51F4AD36820490B40E9680B434D
:100F7000D3602B681B0707D51A49CB681C4A13405E
:100F80002A69D2001343CB60FFF768FC154BDA687F
:100F900012090F231340174AD35CD840164B186030
:100FA000164B1868FFF786F970BD0D4A13680121CA
:100FB0008B4323431360FFF7C5F90600084B1A68FB
:100FC00001231340A342CAD0FFF7BCF9801B064B94
:100FD0009842F3D90320E7E70120E5E70120E3E7A2
:100FE000002002400010024088130000FFF8FFFFBD
:100FF000FFC7FFFF002F00080800002004000020AA
:10100000014B18687047C0460800002010B5FFF774
:10101000F7FF044BDA68120A07231340024AD35C35
:10102000D84010BD00100240F82E000810B5FFF7A0
:10103000E7FF044BDA68D20A07231340024AD35C65
:10104000D84010BD00100240F82E000870B5040012
:1010500003689B064ED55B4B9B6BDB0074D4594AEF
:10106000916B80235B050B4393630126564B1B68F2
:10107000DB056BD5534B1B6862685340C021890365
:101080000B4205D0C0239B0211001940994271D038
:101090004C4B196DC0239B0208001840194215D013
:1010A0001A40824212D023689B060FD5454B1A6D19
:1010B000464911401D6D8020000328431865186DB6
:1010C000434D284018651965D20559D423689B06FD
:1010D0000ED56368C02292021900114091425ED081
:1010E00038490B6D6268C0208002024013430B65D3
:1010F000012E5ED023689B0706D5324AD36C0C21A3
:101100008B43A1680B43D36423685B0706D52D4A44
:10111000D36C30490B40E1680B43D36423681B0751
:1011200006D5284AD36C2C490B4021690B43D36464
:1011300023681B0643D5234AD36C28490B406169B9
:101140000B43D36400203BE000268FE71E4A116862
:1011500080235B000B431360FFF7F4F805001A4B84
:101160001B68DB0586D4FFF7EDF8401B6428F6D931
:10117000032025E0134B1B689B0389D501201FE04A
:10118000FFF7E0F805000F4B1B6D9B059ED4FFF7A2
:10119000D9F8401B124B9842F5D9032010E00949B9
:1011A0000A6810480240C0208003034013430B60CC
:1011B00096E7044A936B0C490B4093639AE700202F
:1011C00070BDC0460010024000700040FFFFFCFFF1
:1011D000FFFFF7FFFFF3FFFFFFCFFFFFFFFFF3FF6F
:1011E00088130000FFFFCFFFFFFFFFEF036880229F
:1011F000D205904205D0144A904202D0134A904240
:1012000003D1702293434A6813438022D20590424F
:1012100005D00D4A904202D00C4A904203D10C4AAC
:101220001340CA681343802293430A6913438A68B0
:10123000C2620A688262026804210A4302600122D3
:10124000426103607047C04600080140001401403D
:10125000FFFCFFFF10B51F23194001248C40036AD7
:10126000A3430362036A8A401343036210BD000074
:10127000F0B5C64600B504000D00002849D039235A
:10128000C35C002B3FD039260223A3552268936804
:1012900021490B409360210001C9FFF7A7FF216896
:1012A0008B688A690F6A2868184380461B4B1A406E
:1012B000AB68A869000203431343194A1340EA6864
:1012C000E869000202431A432B691B01286A0003E4
:1012D00003431343AA2297436A686D692D012A4389
:1012E0003A434046886021688B6123681A62012373
:1012F0003E22A354043AA3540132A354A355002020
:1013000080BCB846F0BD38330022C25401F03CF82E
:10131000B9E70120F4E7C046F8BFFFFFFCFCFFFF80
:101320000303FFFF10B504003A23C05CC0B20133D1
:10133000E35CDBB2002913D1012835D13A23022224
:10134000E25400291ED0042928D02068012200215F
:10135000FFF780FF206801220421FFF77BFF16E0E2
:10136000042909D0012823D1012B16D101333A22B7
:10137000A3540132A354E4E7012B17D13A330222DC
:10138000E254DEE7206801220021FFF763FF2268B4
:10139000136801210B431360002010BD2068012257
:1013A0000421FFF757FFF2E70120F6E70120F4E7F9
:1013B0000120F2E730B53823C35C012B25D0382358
:1013C0000122C25401330132C25403685C689D6833
:1013D0006E3294430A6822435A6003688022D20521
:1013E000934205D00A4A934202D00A4A934204D15A
:1013F000802295434A682A439A6039230122C254C5
:10140000013B0022C254002030BD0220FCE7C04650
:10141000000801400014014010B5EFF310810123D2
:1014200083F3108802681368C024A343136081F318
:1014300010882023C36710BD10B5EFF3108C012274
:1014400082F3108801680B68124C23400B608CF308
:101450001088EFF3108C82F3108801688B68934337
:101460008B608CF31088036E012B06D08023202222
:10147000C25000230366836610BDEFF3108183F32F
:101480001088026813683234FF34A343136081F379
:101490001088EBE7DFFEFFFF704710B5EFF3108118
:1014A000012383F31088026813684024A343136068
:1014B00081F310882023C3670023C366FFF7ECFF86
:1014C00010BD70477047704770B5846AE16F802324
:1014D000E55822689268134201D021290ED0236872
:1014E0009B685B0601D5222D0FD08422A3581021C2
:1014F0000B43A3502000FFF7E6FF70BD2E3B0022F8
:10150000E2522000FFF788FFE9E75A230022E25267
:101510002000FFF791FFE8E710B5806A5A23002208
:10152000C252FFF7D0FF10BD70B504000268D36946
:1015300011689068B24D2B4209D19D060FD58D06DA
:101540000DD5A36E002B1DD0200098471AE0012571
:101550002E000640054216D1AA4D294213D1256E10
:10156000012D00D192E0DD0202D5400200D535E127
:101570001A0602D50A0600D537E15B0602D54906F0
:1015800000D539E170BDD80707D5C80505D50125B7
:101590001562842022582A4322509A0709D5002E2A
:1015A00007D02268022010628230225804252A4384
:1015B00022505A0709D5002E07D022680420106255
:1015C0008030225802252A4322501A070AD58A065B
:1015D00001D4002E06D022680825156284202258E6
:1015E0002A4322501A050AD54A0108D522688020CC
:1015F000000110628420225820252A432250842290
:10160000A258002ABED09B0606D5890604D5A36E33
:10161000002B01D0200098478423E25823689B6860
:101620005B0602D42823134229D02000FFF704FFD1
:1016300023689B685B061ED5EFF31081012383F3BB
:1016400010882268936840208343936081F3108858
:10165000636F002B0BD06C4A9A63606FFEF7ADFF8F
:10166000002800D18EE7606F836B98478AE72000DF
:10167000FFF729FF86E72000FFF725FF82E720001C
:10168000FFF721FF84230022E2507BE7DD0600D430
:1016900069E7CD0600D466E71023136223689B68D0
:1016A0005B0660D5616F0A6853689BB2002B4BD014
:1016B0005820205A984247D95A22A3520B681B68D7
:1016C0009B060BD5022363665633E15A0233E35A75
:1016D000C91A89B2200000F003FD53E7EFF3108030
:1016E000012383F3108821680A68484D2A400A6064
:1016F00080F31088EFF3108083F3108821688A68E4
:101700009A438A6080F31088EFF3108083F3108887
:1017100021688A684235FF35AA438A6080F31088C1
:1017200080222021A15000222266EFF3108183F352
:1017300010882268136810208343136081F3108897
:10174000606FFEF716FFBDE75821615A994200D03D
:1017500018E713689B0600D414E702236366200091
:1017600000F0BEFC0EE75823E35A5A22A15A591A38
:1017700089B2A35A9BB2002B00D103E7002900D104
:1017800000E7EFF31085012383F3108820680268D7
:101790001F4E3240026085F31088EFF3108583F30B
:1017A0001088206882689A43826085F310888022BE
:1017B0002020A05000222266A266EFF3108083F35F
:1017C0001088226813681025AB43136080F31088DB
:1017D00002236366200000F083FCD3E680235B03D2
:1017E0001362200000F0EAFBCCE6E36E002B00D190
:1017F000C8E620009847C5E62000FFF74EFEC1E688
:101800000F0800002001000419150008FFFEFFFF6B
:10181000DFFEFFFF10B50300806A01224266026E00
:10182000012A11D15732815A4C08023284521B6866
:101830005B689BB2994200D383525A23C35AC91A98
:1018400089B200F04DFC10BDFFF73CFEFBE7000045
:1018500070B50300806A1A681268920629D45A2269
:1018600000218152EFF31085593A82F31088046801
:101870002168234E3140216085F31088EFF31085F5
:1018800082F310880468A1689143A16085F31088F1
:10189000EFF3108482F3108801688A684025AA4318
:1018A0008A6084F31088802220218150026E012AF0
:1018B00017D000224266026E012A1ED15932002141
:1018C00081521B685B689BB2023A815A994201D9E6
:1018D000023283525A23C35AC91A89B200F000FC5B
:1018E00070BDEFF3108482F3108801680A68303D00
:1018F000AA430A6084F31088DBE7FFF7E2FDEFE715
:10190000FFFEFFFFD0B5040001688368026913433E
:1019100042691343C26913430A688448024013436F
:101920000B602268536882490B40E1680B435360A7
:10193000A16922687F4B9A4201D0236A19439368B8
:101940007D4803400B43936022687C4B9A4212D03F
:10195000784B9A4220D0102376498A4242D0E069DF
:1019600080221202904279D0082B00D9D8E09B0047
:10197000734AD3589F46734BD96C0C230B40082BEA
:1019800022D005D8002B21D0042BE5D01023E3E78B
:101990000C2B1DD1043BDFE76A4BDB6CC021090136
:1019A0000B40802109018B4214D007D8002B13D0A3
:1019B0008021C9008B4211D10423CDE7C021090148
:1019C0008B420DD10823C7E70223C5E70023C3E7F5
:1019D0001023C1E70223BFE70023BDE71023BBE7C5
:1019E0001023B9E7042B34D00BD8002B2BD0022BBB
:1019F00005D1544B1B68DB062ED4534805E001206B
:101A00006DE0082B1DD180200002626853009B18F6
:101A1000834200D978E01303834200D276E0070EB8
:101A2000060250080021801979410023FEF7D4FBFB
:101A3000464BC218464B9A426AD82368D8600020A9
:101A40004DE001204BE0FFF7E1FA0028DDD1002056
:101A500045E0FEF703FFF8E73E48D6E7082B59D8E4
:101A60009B003D4AD3589F46FFF7D0FA002853D039
:101A7000400061684B08C018FEF722FB0200103AD4
:101A8000364B9A424AD882B20F239A434008083B09
:101A9000034013432268D360002020E0FFF7C6FA1A
:101AA000E4E7284B1B68DB0604D42748E0E7FEF791
:101AB000D5FEDBE72748DBE7FFF7A8FA002831D09F
:101AC00061684B081818FEF7FBFA0200103A234B26
:101AD0009A4229D823680004000CD8600020002313
:101AE000A366E366D0BDFFF7A1FAE7E7154B1B68D5
:101AF000DB0607D41448E3E7FEF7B0FEDEE78020FC
:101B00000002DDE71348DBE70120E8E70120E6E714
:101B10000120E4E70120E2E70020E0E70120DEE722
:101B20000120DCE70020DAE70120D8E7F369FFEFC6
:101B3000FFCFFFFF00480040FFF4FFFF00440040DC
:101B4000882E0008001002400024F40000FDFFFF72
:101B5000FFFC0F0000093D00AC2E0008EFFF000065
:101B6000436A1B0706D5026853682C490B40416B3A
:101B70000B435360436ADB0706D502685368284964
:101B80000B40816A0B435360436A9B0706D502688A
:101B9000536824490B40C16A0B435360436A5B0797
:101BA00006D50268536820490B40016B0B43536014
:101BB000436ADB0606D5026893681C490B40816BBB
:101BC0000B439360436A9B0606D5026893681849E5
:101BD0000B40C16B0B439360436A5B060BD50268F5
:101BE000536814490B40016C0B435360026C802313
:101BF0005B039A420AD0436A1B0606D50268536803
:101C00000D490B40816C0B43536070470268536869
:101C10000A490B40416C0B435360ECE7FF7FFFFF29
:101C2000FFFFFDFFFFFFFEFFFFFFFBFFFFEFFFFFDB
:101C3000FFDFFFFFFFFFEFFFFFFFF7FFFFFF9FFF4C
:101C4000F8B5CE46474680B506000D001700994608
:101C5000089B98463368DC692C40641B63425C41F6
:101C6000BC4233D143460133F4D0FEF76BFB4B4605
:101C7000C01A40452FD84346002B2ED03268136837
:101C80005B07E7D5802DE5D0402DE3D0D3691B0756
:101C900010D4D3691B05DDD580231B0113623000EE
:101CA000FFF7CAFB84232022F2500C3B0022F2549F
:101CB00003200CE0082414623000FFF7BDFB8423EE
:101CC000F4500C3B0022F254012000E00020C0BC84
:101CD000B946B046F8BD0320F9E70320F7E7F0B5B1
:101CE000C64600B582B004000D0090461E00C36FCA
:101CF000202B62D1002965D0002A65D0826880231C
:101D00005B019A4204D10369002B01D1CB075DD45A
:101D100084230022E250633BE367FEF713FB0700D6
:101D200050234246E2520233E252A26880235B0112
:101D30009A4202D00023984617E02369002B29D04D
:101D40000023984611E02023E367032036E0434652
:101D50001B882268DB05DB0D936202239C46E0446E
:101D60005223E25A013A92B2E2525223E35A9BB210
:101D7000002B12D000963B00002280212000FFF7AC
:101D80005FFF0028DFD1002DE1D02A7823689A6216
:101D90000135E5E7A8460025E7E700963B0000226D
:101DA00040212000FFF74CFF002802D12023E367E9
:101DB00004E02023E367032000E0022002B080BC9F
:101DC000B846F0BD0120F9E70120F7E70120F5E76B
:101DD00030B583B0040084230022C250FEF7B2FA6B
:101DE000050023681B681B070FD423681B685B076B
:101DF00029D42023E3678022A3500023236663664F
:101E0000083AA354002003B030BD8021224B009338
:101E10000300002289032000FFF712FF0028E4D00E
:101E2000EFF31081012383F3108822681368802068
:101E30008343136081F310882023E3675833002223
:101E4000E2547D38DFE78021134B00932B00002202
:101E5000C9032000FFF7F4FE0028CAD0EFF310807A
:101E6000012282F3108821680B680C4D2B400B6017
:101E700080F31088EFF3108082F3108821688B685C
:101E800093438B6080F3108880231F32E250083B1D
:101E90000022E2540320B6E7FFFFFF01DFFEFFFF51
:101EA00010B5041E2ED0C36F002B21D02423E3676E
:101EB0002268136801218B431360636A002B1DD1D4
:101EC0002000FFF71FFD012811D0226853680E493A
:101ED0000B405360226893682A218B4393602268E9
:101EE000136829390B4313602000FFF771FF10BD01
:101EF00078330022C25400F06FFAD7E72000FFF7D2
:101F00002FFEDDE70120F2E7FFB7FFFF10B5040069
:101F100013004165582283522C3200218150043A2B
:101F200022318150426F002A12D02149D162426F82
:101F300020491163426F20495163426F0021916330
:101F400001682431426D406FFEF7D8FA002826D18F
:101F50002369002B0BD0EFF31081012383F310884A
:101F600022681068FF330343136081F31088EFF396
:101F70001080012383F3108821688A681A438A60DD
:101F800080F31088EFF3108183F310882268936840
:101F900040200343936081F31088002010BD842308
:101FA0001022E250043B1032E2500120F6E7C04616
:101FB0005118000815180008C9140008704710B51A
:101FC00004008023C358202B2AD100292AD0002ABC
:101FD0002AD0806880235B01984204D12369002BBA
:101FE00001D1CB0722D4012323660023636620009E
:101FF000FFF78CFF002814D1236E012B01D00120A4
:102000000FE0236810211962EFF3108C012383F392
:102010001088226813680B4313608CF3108800E06B
:10202000022010BD0120FCE70120FAE70120F8E7BB
:10203000F0B589B01422002103A800F0E4FA194B8E
:10204000DA6A01252A43DA62DA6A2A400192019AA1
:10205000D96A02221143D962DB6A1A400292029BBA
:10206000114CA027FF05002221003800FEF7E8FBF5
:102070000E4E0022F9213000FEF7E2FB0394049596
:1020800000240594069403A93800FEF71BFBF923EE
:10209000039304950594069403A93000FEF712FB00
:1020A00009B0F0BD00100240E080000000040050C4
:1020B00000B583B0094A116B012319431163126BF8
:1020C00013400193019B002200210B20FEF79EF993
:1020D0000B20FEF79FF903B000BDC0460010024080
:1020E000704772B6FEE7000000B58DB024220021D3
:1020F00003A800F088FA0822002101A800F083FA62
:1021000011488023DB0503600023436083600F4A8E
:10211000C26003614361013303930593099303A9EB
:10212000FFF7A6F800280AD100230193029306487E
:1021300001A9FFF73FF9002803D10DB000BDFFF75B
:10214000D0FFFFF7CEFFC04614010020FFFF0000C4
:1021500010B50B480B4B036096239B014360002393
:102160008360C36003610C2242618361C3610362C7
:102170004362FFF795FE002800D110BDFFF7B1FFC5
:102180008C0000200044004000B599B034220021AA
:102190000BA800F038FA1422002106A800F033FA48
:1021A00018220021684600F02EFA1A490A681A4BD4
:1021B0001A4080231B0113430B6002230B93013B46
:1021C0000E930F330F93002314930BA8FEF79EFB7F
:1021D000002818D10F2306930E3B07930023089382
:1021E00009930A93002106A8FEF71EFE00280CD1D1
:1021F00002230093002302936846FEF727FF00287E
:1022000005D119B000BDFFF76CFFFFF76AFFFFF7BC
:1022100068FFC04600700040FFE7FFFFF0B587B0E1
:10222000FEF770F8FFF7B0FFFFF702FFFFF740FF80
:10223000FFF75AFFFFF78CFF8021A020012209023F
:10224000C005FEF7FDFA6420FEF782F800F05CF9A5
:102250003A49002000F093F900F080F93848FEF781
:1022600077F804AF374B1A6804921B793B7102AEC2
:10227000354B1A6902929B8AB380344B1A680092DC
:102280001B796A461371324C012220212000FEF78F
:10229000D7FA002208212000FEF7D2FA00221021EE
:1022A0002000FEF7CDFA01256D422A4C2B000522B5
:1022B00039002000FFF713FDC820FEF749F82B0076
:1022C000062231002000FFF70AFDC820FEF740F883
:1022D0002B00052269462000FFF701FD1E48002162
:1022E000FFF720F81D4910222000FFF768FE1EE0CE
:1022F000012149421A4A1160586A00B200F07CFD7F
:102300000022184B00F078FA174C00F039FD2060DD
:102310000F4C40212000FEF799FA3220FEF718F802
:1023200080212000FEF792FA3220FEF711F80A4BC6
:102330001B681A68D206DBD40121DBE7D02E000827
:1023400088130000DC2E0008702E0008E42E000820
:10235000000400508C0000201401002034000020F4
:10236000300000200000E03F2C000020054B5A6B9D
:1023700001210A435A63996B802252050A439A63EA
:102380007047C0460010024010B586B00400142209
:10239000002101A800F037F922688023DB059A426A
:1023A00001D006B010BD0B4A916B01231943916314
:1023B000D16A1943D162D26A13400093009B032370
:1023C0000193013B02930593A02001A9C005FEF7EC
:1023D00079F9E6E70010024030B587B00400142216
:1023E000002101A800F00FF92268204B9A4201D089
:1023F00007B030BD1E4B996B802292020A439A634C
:10240000D96A01221143D962DB6A1A400092009B0B
:102410000C2301930A3B0293013304930425059591
:10242000A02001A9C005FEF74DF91248124B036028
:10243000456000238360C360802202614361836141
:10244000C3610362FEF70EF800280BD1094B6367E6
:102450009C62002200211C20FDF7D8FF1C20FDF704
:10246000D9FFC5E7FFF73DFEF0E7C0460044004056
:10247000001002404400002058000240FEE7FEE742
:102480007047704710B5FDF751FF10BD10B50248F9
:10249000FEF7BAF810BDC0464400002010B5054C48
:1024A0002000FFF741F8044910222000FFF787FDC4
:1024B00010BDC0468C00002034000020704770B56D
:1024C000050000240EE0A02000228021C005FEF7B8
:1024D000B7F96D08A02001222021C005FEF7B0F950
:1024E0000134E4B2072C0ED8A02000222021C00520
:1024F000FEF7A6F9EB07E6D5A02001228021C00552
:10250000FEF79EF9E5E770BD10B58021A024E40533
:10251000012209022000FEF793F900224021200049
:10252000FEF78EF9E020FFF7CAFF0720FFF7C7FF8D
:10253000012240212000FEF783F9002240212000E3
:10254000FEF77EF9E420FFF7BAFFFF20FFF7B7FFA1
:10255000012240212000FEF773F910BD10B5A02420
:10256000E405002240212000FEF76AF9E820FFF789
:10257000A6FF012240212000FEF762F910BD70B5D0
:1025800005000C00A02000224021C005FEF758F9EC
:102590002035E8B2FFF793FF02E0FFF790FF013428
:1025A00020780028F9D1A03001224021C005FEF793
:1025B00047F970BD0D488546FFF780FF0C480D496F
:1025C0000D4A002302E0D458C4500433C4188C428E
:1025D000F9D30A4A0A4C002301E013600432A242F4
:1025E000FBD300F019F8FFF719FEFEE700200020EA
:1025F000000000200C000020202F00080C0000200C
:1026000054010020FEE703008218934200D1704776
:1026100019700133F9E7000070B500260C4C0D4D20
:10262000641BA410A64209D1002600F015FC0A4C38
:102630000A4D641BA410A64205D170BDB300EB582F
:1026400098470136EEE7B300EB5898470136F2E7BA
:10265000182F0008182F00081C2F0008182F00083A
:10266000F0B557464E464546DE46E0B504000D003F
:102670009246994683B08B4230D82DD04946504679
:10268000FDF7E8FD290006002000FDF7E3FD331A01
:102690009846203B34D49B4653465A469340424684
:1026A0001F00534693401E00AF423BD8AF4200D1BB
:1026B00079E05B46A41BBD41002B00DA76E00022E6
:1026C00000230092019301235A4693400193012372
:1026D00042469340009329E08242CFD90022002352
:1026E000009201930C9B002B01D01C605D60009850
:1026F000019903B0F0BCBB46B246A946A046F0BD66
:1027000042469B4620239B1A5246DA40414613001C
:102710004A468A40170042461F43534693401E00D4
:10272000AF42C3D900220023009201934346002BFD
:10273000D8D0FB0772081A4346467B080EE0AB422E
:1027400001D1A2420CD8A41A9D41012024196D4147
:102750000021013E24184D41002E06D0AB42EED997
:10276000013E24196D41002EF8D1009801995B4675
:1027700000196941002B24DB2B005A464446D34004
:102780002A00E2401C005B461500002B2ADB2600D5
:102790009E40330026004746BE403200801A9941D1
:1027A000009001919EE7A342BCD882E742462023D5
:1027B00000219B1A0022009101920122DA4001922D
:1027C00085E7424620239B1A2A0046469A4023006A
:1027D000F340444613432A00E2401C005B461500C8
:1027E000002BD4DA42462F002023260097409B1A64
:1027F000DE403B003343CDE7F0B55746DE464E465C
:102800004546E0B51F000B031B0B16009A46CA0F86
:102810004B000400934687B05B0D00D1D2E0B94A6B
:10282000934200D1F5E05146420FC9000A4380218E
:1028300009041143C2009146B34A8A469D180023F9
:10284000984602933C037B00FA0F3000240B5B0D8B
:10285000009200D193E0AB4A934231D0E400720F72
:102860002243802424041443A74AF000944663447E
:102870005B195A1C0192424600250A2A3FDC5A463F
:1028800000994A4093464246022A2FDC013A012A27
:1028900000D945E1022D00D1C7E0012D3AD1002336
:1028A0000024002210005A461B052343D20713437D
:1028B000190007B0F0BCBB46B246A946A046F0BD21
:1028C000264300D1BBE00322414611435A468846C5
:1028D00000998C4B4A4080210901691801914146B9
:1028E000EB180A2900DD31E2934603254246012711
:1028F0009740A6213A00C9000A400F4231D0029DFC
:10290000022D00D133E2032D00D1D0E154464846D8
:10291000012DC4D0019A7D4B94466344002B00DC0A
:10292000C0E0420709D00F220240042A05D0021D50
:1029300082428041404224181000E20106D5744BC7
:10294000019A1C4080239446DB006344714A934201
:102950006BDC6207C00864025B050243240B5B0D5D
:10296000A0E7902189000F4263D188223A4200D12A
:10297000D6E0009BA2469B4681460295BFE7230016
:10298000334300D17FE0002C00D1ABE12000FDF704
:1029900043FC020003000B3A1D201900821A30008C
:1029A0000839D0408C400443300088405A4AEB1A22
:1029B000944663445A1C0192424600250A2A00DCD0
:1029C0005DE79CE753460343994654D05346002B9A
:1029D00000D175E15046FDF71FFC0B235B429C467E
:1029E0000200844411005046083988401D23804667
:1029F00060461B1A2000D8400300404603439A4615
:102A000023008B4099460023434D9846AD1A02930C
:102A100018E752460243914626D100221D000223A8
:102A200092460832904602930CE700240022354B70
:102A300038E7002380249B462403324B32E70223ED
:102A400042461A4380231B01EB18904601930A2A41
:102A500000DD54E75A46002000992A4B4A40EB1803
:102A60009346040002250EE70C221D000323814635
:102A700090460293E6E600239A4604339846033BC9
:102A800000250293DEE6424601331A432B009046AE
:102A90005A1C019242460024002001250A2A00DC2B
:102AA000EDE62CE70122D21A382A00DDF7E61F2ACC
:102AB00000DC28E11F214942CB1A2100D9400B003C
:102AC000202A05D0154A019E94466644B44020430E
:102AD000421E90411843072319000024014003427D
:102AE0000CD00F230340042B00D13EE1031D834291
:102AF000A4411800644261076402240BC208002349
:102B00000A43CFE6FF07000001FCFFFFFF030000C0
:102B1000FFFFFFFEFE0700000DFCFFFF3E0400006C
:102B200049464A460904090C0E00150C020C000423
:102B3000000C4643B44606006E43B04616000F0034
:102B40006E43009202963200009E77436646360C32
:102B5000B14647444F44B84505D916008022520279
:102B60009046464402963E0C0396664636043F0461
:102B7000360CB4463E0066440496260C2404240C0D
:102B8000B44626006E43B04666460F00714341448A
:102B900089466743390C49447543884503D98022E7
:102BA0005202904645440E0CB04645440595039D9F
:102BB0003F04A8463F0C0904C919884445460395BB
:102BC00055462F0C2D042D0C2E004643784381468C
:102BD0003800B046360CB246009A50436A434A4425
:102BE0005244914503D980267602B1464844160CDA
:102BF000B14646463604360CB04666467E4312045D
:102C000048449044B1462A006646624375437C437B
:102C1000170C2D197F19BC4203D980246402A446E5
:102C2000E144029C039DA446059E65448D42894172
:102C3000B44612043C04120CA218624449425418CF
:102C40004544A4464545A44182466442A046B2425A
:102C500092418C458941E244D044494252420A4360
:102C6000A045A44182458941644249420C43414602
:102C70003F0CD2191219CC0D049968020843411E69
:102C8000884141464A44ED0D52022843490214430B
:102C90000843D20135D50122430802401343E0071F
:102CA0001843640836E6009BA2469B468146802472
:102CB000534624031C4324034A462F4B240BF1E5BF
:102CC000FDF7AAFA15239C4684440200634620328D
:102CD0001C2B00DC86E6002399462300083883403D
:102CE0009A4690E6FDF798FA020003001532203369
:102CF0001C2A00DC50E602003400083A0020944010
:102D000054E6019306E61D4B21009C460300019EFC
:102D1000D3406644B14019430300B340581E834179
:102D200019430800D4404B0709D00F230B40042B54
:102D300005D00B1D8B42804140422418180023020D
:102D400000D4D8E6012300240022ABE50F29AAD144
:102D5000802352461B031A42A9D01C42A7D11C4310
:102D6000009B02009B46044B9CE50024C3E6002424
:102D7000014B220096E5C046FF0700001E0400003C
:102D80000B00020070B5164D0C0382B04900002004
:102D900000920193240B490DDE0FA94204DD114876
:102DA000814203DD104BF01802B070BD802040035B
:102DB00020430E4C641A1F2C08DD0D4B5B1AD840C3
:102DC00003005842002EEFD11800EDE7094B009A9E
:102DD0009C46030061448B40E2401343F1E7C04648
:102DE000FE0300001D040000FFFFFF7F330400000E
:102DF00013040000EDFBFFFF70B5002816D0C317C9
:102E0000C5185D40C40F2800FDF706FA114B1B1AC8
:102E10000A2816DC02002E00153296400B22121AE8
:102E2000D5405B052D032D0B5B0D03E00024002333
:102E3000002500261B052B43E4072343300019001F
:102E400070BD0B3885405B052D0300262D0B5B0DF7
:102E5000F0E7C0461E040000F8B5C046F8BC08BC48
:102E60009E467047F8B5C046F8BC08BC9E46704701
:102E700004FB01000000000006F901000000000052
:102E80000BF4020100020000B81A0008E61A00085C
:102E9000EC1A0008201B0008F81A0008201B000884
:102EA000201B0008201B0008FE1A0008681A0008F2
:102EB0009C1A0008A21A0008141B0008AE1A000889
:102EC000141B0008141B0008141B0008701A0008CB
:102ED00041424344454647480000000004FB010BC3
:102EE0000B00000004FB01010100000003040608C0
:102EF0000C10182030000000000000000102030444
:102F00000000000000000000010203040607080999
:082F100050F7FF7F01000000F3
:042F18009502000816
:042F1C006D0200083A
:0C2F200001000000040000000000200080
:04000005080025B515
:00000001FF
